{"contracts/Wallet.sol":{"Wallet":{"abi":[{"anonymous":false,"inputs":[{"indexed":false,"internalType":"uint256","name":"_numLayersToMakeTransfer","type":"uint256"}],"name":"TestLogNumLayersToMakeTransfer","type":"event"},{"anonymous":false,"inputs":[{"indexed":false,"internalType":"uint256","name":"_amountMin","type":"uint256"},{"indexed":false,"internalType":"uint256","name":"_amountMax","type":"uint256"}],"name":"TestLogTransferLayer","type":"event"},{"inputs":[{"internalType":"address","name":"_receiver","type":"address"}],"name":"test","outputs":[],"stateMutability":"nonpayable","type":"function"}],"evm":{"bytecode":{"linkReferences":{},"object":"608060405234801561001057600080fd5b506106c8806100206000396000f3fe608060405234801561001057600080fd5b506004361061002b5760003560e01c8063bb29998e14610030575b600080fd5b61004a60048036038101906100459190610273565b61004c565b005b61005461005f565b61005c6100a6565b50565b61006b600060646100a8565b7f2335b7e19425c64f82a69a5bd40a2980cb0e2b909a099264a0f0b0afa50b10a860005460405161009c91906102b9565b60405180910390a1565b565b6000600160008054815260200190815260200160002090506000604051806040016040528085815260200184815250905080826000016000820151816000015560208201518160010155905050600060405180604001604052806040518060400160405280600381526020017f455448000000000000000000000000000000000000000000000000000000000081525081526020016040518060400160405280600481526020017f5553444300000000000000000000000000000000000000000000000000000000815250815250905060005b60028110156101f1576000828260028110610199576101986102d4565b5b602002015190508085600301600084815260200190815260200160002090816101c29190610549565b508460020160008154809291906101d89061064a565b91905055505080806101e99061064a565b91505061017b565b506000808154809291906102049061064a565b91905055505050505050565b600080fd5b600073ffffffffffffffffffffffffffffffffffffffff82169050919050565b600061024082610215565b9050919050565b61025081610235565b811461025b57600080fd5b50565b60008135905061026d81610247565b92915050565b60006020828403121561028957610288610210565b5b60006102978482850161025e565b91505092915050565b6000819050919050565b6102b3816102a0565b82525050565b60006020820190506102ce60008301846102aa565b92915050565b7f4e487b7100000000000000000000000000000000000000000000000000000000600052603260045260246000fd5b600081519050919050565b7f4e487b7100000000000000000000000000000000000000000000000000000000600052604160045260246000fd5b7f4e487b7100000000000000000000000000000000000000000000000000000000600052602260045260246000fd5b6000600282049050600182168061038457607f821691505b6020821081036103975761039661033d565b5b50919050565b60008190508160005260206000209050919050565b60006020601f8301049050919050565b600082821b905092915050565b6000600883026103ff7fffffffffffffffffffffffffffffffffffffffffffffffffffffffffffffffff826103c2565b61040986836103c2565b95508019841693508086168417925050509392505050565b6000819050919050565b600061044661044161043c846102a0565b610421565b6102a0565b9050919050565b6000819050919050565b6104608361042b565b61047461046c8261044d565b8484546103cf565b825550505050565b600090565b61048961047c565b610494818484610457565b505050565b5b818110156104b8576104ad600082610481565b60018101905061049a565b5050565b601f8211156104fd576104ce8161039d565b6104d7846103b2565b810160208510156104e6578190505b6104fa6104f2856103b2565b830182610499565b50505b505050565b600082821c905092915050565b600061052060001984600802610502565b1980831691505092915050565b6000610539838361050f565b9150826002028217905092915050565b61055282610303565b67ffffffffffffffff81111561056b5761056a61030e565b5b610575825461036c565b6105808282856104bc565b600060209050601f8311600181146105b357600084156105a1578287015190505b6105ab858261052d565b865550610613565b601f1984166105c18661039d565b60005b828110156105e9578489015182556001820191506020850194506020810190506105c4565b868310156106065784890151610602601f89168261050f565b8355505b6001600288020188555050505b505050505050565b7f4e487b7100000000000000000000000000000000000000000000000000000000600052601160045260246000fd5b6000610655826102a0565b91507fffffffffffffffffffffffffffffffffffffffffffffffffffffffffffffffff82036106875761068661061b565b5b60018201905091905056fea2646970667358221220c5fdf2a63510f874384407dff98b1f8097127a0a8455d64ff212d5238a1e039464736f6c63430008110033","opcodes":"PUSH1 0x80 PUSH1 0x40 MSTORE CALLVALUE DUP1 ISZERO PUSH2 0x10 JUMPI PUSH1 0x0 DUP1 REVERT JUMPDEST POP PUSH2 0x6C8 DUP1 PUSH2 0x20 PUSH1 0x0 CODECOPY PUSH1 0x0 RETURN INVALID PUSH1 0x80 PUSH1 0x40 MSTORE CALLVALUE DUP1 ISZERO PUSH2 0x10 JUMPI PUSH1 0x0 DUP1 REVERT JUMPDEST POP PUSH1 0x4 CALLDATASIZE LT PUSH2 0x2B JUMPI PUSH1 0x0 CALLDATALOAD PUSH1 0xE0 SHR DUP1 PUSH4 0xBB29998E EQ PUSH2 0x30 JUMPI JUMPDEST PUSH1 0x0 DUP1 REVERT JUMPDEST PUSH2 0x4A PUSH1 0x4 DUP1 CALLDATASIZE SUB DUP2 ADD SWAP1 PUSH2 0x45 SWAP2 SWAP1 PUSH2 0x273 JUMP JUMPDEST PUSH2 0x4C JUMP JUMPDEST STOP JUMPDEST PUSH2 0x54 PUSH2 0x5F JUMP JUMPDEST PUSH2 0x5C PUSH2 0xA6 JUMP JUMPDEST POP JUMP JUMPDEST PUSH2 0x6B PUSH1 0x0 PUSH1 0x64 PUSH2 0xA8 JUMP JUMPDEST PUSH32 0x2335B7E19425C64F82A69A5BD40A2980CB0E2B909A099264A0F0B0AFA50B10A8 PUSH1 0x0 SLOAD PUSH1 0x40 MLOAD PUSH2 0x9C SWAP2 SWAP1 PUSH2 0x2B9 JUMP JUMPDEST PUSH1 0x40 MLOAD DUP1 SWAP2 SUB SWAP1 LOG1 JUMP JUMPDEST JUMP JUMPDEST PUSH1 0x0 PUSH1 0x1 PUSH1 0x0 DUP1 SLOAD DUP2 MSTORE PUSH1 0x20 ADD SWAP1 DUP2 MSTORE PUSH1 0x20 ADD PUSH1 0x0 KECCAK256 SWAP1 POP PUSH1 0x0 PUSH1 0x40 MLOAD DUP1 PUSH1 0x40 ADD PUSH1 0x40 MSTORE DUP1 DUP6 DUP2 MSTORE PUSH1 0x20 ADD DUP5 DUP2 MSTORE POP SWAP1 POP DUP1 DUP3 PUSH1 0x0 ADD PUSH1 0x0 DUP3 ADD MLOAD DUP2 PUSH1 0x0 ADD SSTORE PUSH1 0x20 DUP3 ADD MLOAD DUP2 PUSH1 0x1 ADD SSTORE SWAP1 POP POP PUSH1 0x0 PUSH1 0x40 MLOAD DUP1 PUSH1 0x40 ADD PUSH1 0x40 MSTORE DUP1 PUSH1 0x40 MLOAD DUP1 PUSH1 0x40 ADD PUSH1 0x40 MSTORE DUP1 PUSH1 0x3 DUP2 MSTORE PUSH1 0x20 ADD PUSH32 0x4554480000000000000000000000000000000000000000000000000000000000 DUP2 MSTORE POP DUP2 MSTORE PUSH1 0x20 ADD PUSH1 0x40 MLOAD DUP1 PUSH1 0x40 ADD PUSH1 0x40 MSTORE DUP1 PUSH1 0x4 DUP2 MSTORE PUSH1 0x20 ADD PUSH32 0x5553444300000000000000000000000000000000000000000000000000000000 DUP2 MSTORE POP DUP2 MSTORE POP SWAP1 POP PUSH1 0x0 JUMPDEST PUSH1 0x2 DUP2 LT ISZERO PUSH2 0x1F1 JUMPI PUSH1 0x0 DUP3 DUP3 PUSH1 0x2 DUP2 LT PUSH2 0x199 JUMPI PUSH2 0x198 PUSH2 0x2D4 JUMP JUMPDEST JUMPDEST PUSH1 0x20 MUL ADD MLOAD SWAP1 POP DUP1 DUP6 PUSH1 0x3 ADD PUSH1 0x0 DUP5 DUP2 MSTORE PUSH1 0x20 ADD SWAP1 DUP2 MSTORE PUSH1 0x20 ADD PUSH1 0x0 KECCAK256 SWAP1 DUP2 PUSH2 0x1C2 SWAP2 SWAP1 PUSH2 0x549 JUMP JUMPDEST POP DUP5 PUSH1 0x2 ADD PUSH1 0x0 DUP2 SLOAD DUP1 SWAP3 SWAP2 SWAP1 PUSH2 0x1D8 SWAP1 PUSH2 0x64A JUMP JUMPDEST SWAP2 SWAP1 POP SSTORE POP POP DUP1 DUP1 PUSH2 0x1E9 SWAP1 PUSH2 0x64A JUMP JUMPDEST SWAP2 POP POP PUSH2 0x17B JUMP JUMPDEST POP PUSH1 0x0 DUP1 DUP2 SLOAD DUP1 SWAP3 SWAP2 SWAP1 PUSH2 0x204 SWAP1 PUSH2 0x64A JUMP JUMPDEST SWAP2 SWAP1 POP SSTORE POP POP POP POP POP POP JUMP JUMPDEST PUSH1 0x0 DUP1 REVERT JUMPDEST PUSH1 0x0 PUSH20 0xFFFFFFFFFFFFFFFFFFFFFFFFFFFFFFFFFFFFFFFF DUP3 AND SWAP1 POP SWAP2 SWAP1 POP JUMP JUMPDEST PUSH1 0x0 PUSH2 0x240 DUP3 PUSH2 0x215 JUMP JUMPDEST SWAP1 POP SWAP2 SWAP1 POP JUMP JUMPDEST PUSH2 0x250 DUP2 PUSH2 0x235 JUMP JUMPDEST DUP2 EQ PUSH2 0x25B JUMPI PUSH1 0x0 DUP1 REVERT JUMPDEST POP JUMP JUMPDEST PUSH1 0x0 DUP2 CALLDATALOAD SWAP1 POP PUSH2 0x26D DUP2 PUSH2 0x247 JUMP JUMPDEST SWAP3 SWAP2 POP POP JUMP JUMPDEST PUSH1 0x0 PUSH1 0x20 DUP3 DUP5 SUB SLT ISZERO PUSH2 0x289 JUMPI PUSH2 0x288 PUSH2 0x210 JUMP JUMPDEST JUMPDEST PUSH1 0x0 PUSH2 0x297 DUP5 DUP3 DUP6 ADD PUSH2 0x25E JUMP JUMPDEST SWAP2 POP POP SWAP3 SWAP2 POP POP JUMP JUMPDEST PUSH1 0x0 DUP2 SWAP1 POP SWAP2 SWAP1 POP JUMP JUMPDEST PUSH2 0x2B3 DUP2 PUSH2 0x2A0 JUMP JUMPDEST DUP3 MSTORE POP POP JUMP JUMPDEST PUSH1 0x0 PUSH1 0x20 DUP3 ADD SWAP1 POP PUSH2 0x2CE PUSH1 0x0 DUP4 ADD DUP5 PUSH2 0x2AA JUMP JUMPDEST SWAP3 SWAP2 POP POP JUMP JUMPDEST PUSH32 0x4E487B7100000000000000000000000000000000000000000000000000000000 PUSH1 0x0 MSTORE PUSH1 0x32 PUSH1 0x4 MSTORE PUSH1 0x24 PUSH1 0x0 REVERT JUMPDEST PUSH1 0x0 DUP2 MLOAD SWAP1 POP SWAP2 SWAP1 POP JUMP JUMPDEST PUSH32 0x4E487B7100000000000000000000000000000000000000000000000000000000 PUSH1 0x0 MSTORE PUSH1 0x41 PUSH1 0x4 MSTORE PUSH1 0x24 PUSH1 0x0 REVERT JUMPDEST PUSH32 0x4E487B7100000000000000000000000000000000000000000000000000000000 PUSH1 0x0 MSTORE PUSH1 0x22 PUSH1 0x4 MSTORE PUSH1 0x24 PUSH1 0x0 REVERT JUMPDEST PUSH1 0x0 PUSH1 0x2 DUP3 DIV SWAP1 POP PUSH1 0x1 DUP3 AND DUP1 PUSH2 0x384 JUMPI PUSH1 0x7F DUP3 AND SWAP2 POP JUMPDEST PUSH1 0x20 DUP3 LT DUP2 SUB PUSH2 0x397 JUMPI PUSH2 0x396 PUSH2 0x33D JUMP JUMPDEST JUMPDEST POP SWAP2 SWAP1 POP JUMP JUMPDEST PUSH1 0x0 DUP2 SWAP1 POP DUP2 PUSH1 0x0 MSTORE PUSH1 0x20 PUSH1 0x0 KECCAK256 SWAP1 POP SWAP2 SWAP1 POP JUMP JUMPDEST PUSH1 0x0 PUSH1 0x20 PUSH1 0x1F DUP4 ADD DIV SWAP1 POP SWAP2 SWAP1 POP JUMP JUMPDEST PUSH1 0x0 DUP3 DUP3 SHL SWAP1 POP SWAP3 SWAP2 POP POP JUMP JUMPDEST PUSH1 0x0 PUSH1 0x8 DUP4 MUL PUSH2 0x3FF PUSH32 0xFFFFFFFFFFFFFFFFFFFFFFFFFFFFFFFFFFFFFFFFFFFFFFFFFFFFFFFFFFFFFFFF DUP3 PUSH2 0x3C2 JUMP JUMPDEST PUSH2 0x409 DUP7 DUP4 PUSH2 0x3C2 JUMP JUMPDEST SWAP6 POP DUP1 NOT DUP5 AND SWAP4 POP DUP1 DUP7 AND DUP5 OR SWAP3 POP POP POP SWAP4 SWAP3 POP POP POP JUMP JUMPDEST PUSH1 0x0 DUP2 SWAP1 POP SWAP2 SWAP1 POP JUMP JUMPDEST PUSH1 0x0 PUSH2 0x446 PUSH2 0x441 PUSH2 0x43C DUP5 PUSH2 0x2A0 JUMP JUMPDEST PUSH2 0x421 JUMP JUMPDEST PUSH2 0x2A0 JUMP JUMPDEST SWAP1 POP SWAP2 SWAP1 POP JUMP JUMPDEST PUSH1 0x0 DUP2 SWAP1 POP SWAP2 SWAP1 POP JUMP JUMPDEST PUSH2 0x460 DUP4 PUSH2 0x42B JUMP JUMPDEST PUSH2 0x474 PUSH2 0x46C DUP3 PUSH2 0x44D JUMP JUMPDEST DUP5 DUP5 SLOAD PUSH2 0x3CF JUMP JUMPDEST DUP3 SSTORE POP POP POP POP JUMP JUMPDEST PUSH1 0x0 SWAP1 JUMP JUMPDEST PUSH2 0x489 PUSH2 0x47C JUMP JUMPDEST PUSH2 0x494 DUP2 DUP5 DUP5 PUSH2 0x457 JUMP JUMPDEST POP POP POP JUMP JUMPDEST JUMPDEST DUP2 DUP2 LT ISZERO PUSH2 0x4B8 JUMPI PUSH2 0x4AD PUSH1 0x0 DUP3 PUSH2 0x481 JUMP JUMPDEST PUSH1 0x1 DUP2 ADD SWAP1 POP PUSH2 0x49A JUMP JUMPDEST POP POP JUMP JUMPDEST PUSH1 0x1F DUP3 GT ISZERO PUSH2 0x4FD JUMPI PUSH2 0x4CE DUP2 PUSH2 0x39D JUMP JUMPDEST PUSH2 0x4D7 DUP5 PUSH2 0x3B2 JUMP JUMPDEST DUP2 ADD PUSH1 0x20 DUP6 LT ISZERO PUSH2 0x4E6 JUMPI DUP2 SWAP1 POP JUMPDEST PUSH2 0x4FA PUSH2 0x4F2 DUP6 PUSH2 0x3B2 JUMP JUMPDEST DUP4 ADD DUP3 PUSH2 0x499 JUMP JUMPDEST POP POP JUMPDEST POP POP POP JUMP JUMPDEST PUSH1 0x0 DUP3 DUP3 SHR SWAP1 POP SWAP3 SWAP2 POP POP JUMP JUMPDEST PUSH1 0x0 PUSH2 0x520 PUSH1 0x0 NOT DUP5 PUSH1 0x8 MUL PUSH2 0x502 JUMP JUMPDEST NOT DUP1 DUP4 AND SWAP2 POP POP SWAP3 SWAP2 POP POP JUMP JUMPDEST PUSH1 0x0 PUSH2 0x539 DUP4 DUP4 PUSH2 0x50F JUMP JUMPDEST SWAP2 POP DUP3 PUSH1 0x2 MUL DUP3 OR SWAP1 POP SWAP3 SWAP2 POP POP JUMP JUMPDEST PUSH2 0x552 DUP3 PUSH2 0x303 JUMP JUMPDEST PUSH8 0xFFFFFFFFFFFFFFFF DUP2 GT ISZERO PUSH2 0x56B JUMPI PUSH2 0x56A PUSH2 0x30E JUMP JUMPDEST JUMPDEST PUSH2 0x575 DUP3 SLOAD PUSH2 0x36C JUMP JUMPDEST PUSH2 0x580 DUP3 DUP3 DUP6 PUSH2 0x4BC JUMP JUMPDEST PUSH1 0x0 PUSH1 0x20 SWAP1 POP PUSH1 0x1F DUP4 GT PUSH1 0x1 DUP2 EQ PUSH2 0x5B3 JUMPI PUSH1 0x0 DUP5 ISZERO PUSH2 0x5A1 JUMPI DUP3 DUP8 ADD MLOAD SWAP1 POP JUMPDEST PUSH2 0x5AB DUP6 DUP3 PUSH2 0x52D JUMP JUMPDEST DUP7 SSTORE POP PUSH2 0x613 JUMP JUMPDEST PUSH1 0x1F NOT DUP5 AND PUSH2 0x5C1 DUP7 PUSH2 0x39D JUMP JUMPDEST PUSH1 0x0 JUMPDEST DUP3 DUP2 LT ISZERO PUSH2 0x5E9 JUMPI DUP5 DUP10 ADD MLOAD DUP3 SSTORE PUSH1 0x1 DUP3 ADD SWAP2 POP PUSH1 0x20 DUP6 ADD SWAP5 POP PUSH1 0x20 DUP2 ADD SWAP1 POP PUSH2 0x5C4 JUMP JUMPDEST DUP7 DUP4 LT ISZERO PUSH2 0x606 JUMPI DUP5 DUP10 ADD MLOAD PUSH2 0x602 PUSH1 0x1F DUP10 AND DUP3 PUSH2 0x50F JUMP JUMPDEST DUP4 SSTORE POP JUMPDEST PUSH1 0x1 PUSH1 0x2 DUP9 MUL ADD DUP9 SSTORE POP POP POP JUMPDEST POP POP POP POP POP POP JUMP JUMPDEST PUSH32 0x4E487B7100000000000000000000000000000000000000000000000000000000 PUSH1 0x0 MSTORE PUSH1 0x11 PUSH1 0x4 MSTORE PUSH1 0x24 PUSH1 0x0 REVERT JUMPDEST PUSH1 0x0 PUSH2 0x655 DUP3 PUSH2 0x2A0 JUMP JUMPDEST SWAP2 POP PUSH32 0xFFFFFFFFFFFFFFFFFFFFFFFFFFFFFFFFFFFFFFFFFFFFFFFFFFFFFFFFFFFFFFFF DUP3 SUB PUSH2 0x687 JUMPI PUSH2 0x686 PUSH2 0x61B JUMP JUMPDEST JUMPDEST PUSH1 0x1 DUP3 ADD SWAP1 POP SWAP2 SWAP1 POP JUMP INVALID LOG2 PUSH5 0x6970667358 0x22 SLT KECCAK256 0xC5 REVERT CALLCODE 0xA6 CALLDATALOAD LT 0xF8 PUSH21 0x384407DFF98B1F8097127A0A8455D64FF212D5238A 0x1E SUB SWAP5 PUSH5 0x736F6C6343 STOP ADDMOD GT STOP CALLER "},"methodIdentifiers":{"test(address)":"bb29998e"}}}}}