{"contracts/Wallet.sol":{"Wallet":{"abi":[{"anonymous":false,"inputs":[{"indexed":false,"internalType":"uint256","name":"_numLayersToMakeTransfer","type":"uint256"}],"name":"TestLogNumLayersToMakeTransfer","type":"event"},{"anonymous":false,"inputs":[{"indexed":false,"internalType":"uint256","name":"_amountMin","type":"uint256"},{"indexed":false,"internalType":"uint256","name":"_amountMax","type":"uint256"}],"name":"TestLogTransferLayer","type":"event"},{"inputs":[{"internalType":"address","name":"_receiver","type":"address"}],"name":"test","outputs":[],"stateMutability":"nonpayable","type":"function"}],"evm":{"bytecode":{"linkReferences":{},"object":"608060405234801561001057600080fd5b506106ed806100206000396000f3fe608060405234801561001057600080fd5b506004361061002b5760003560e01c8063bb29998e14610030575b600080fd5b61004a60048036038101906100459190610298565b61004c565b005b61005461005f565b61005c6100cb565b50565b61006b600060646100cd565b610077606460786100cd565b6100836078608c6100cd565b610090608c6103e86100cd565b7f2335b7e19425c64f82a69a5bd40a2980cb0e2b909a099264a0f0b0afa50b10a86000546040516100c191906102de565b60405180910390a1565b565b6000600160008054815260200190815260200160002090506000604051806040016040528085815260200184815250905080826000016000820151816000015560208201518160010155905050600060405180604001604052806040518060400160405280600381526020017f455448000000000000000000000000000000000000000000000000000000000081525081526020016040518060400160405280600481526020017f5553444300000000000000000000000000000000000000000000000000000000815250815250905060005b60028110156102165760008282600281106101be576101bd6102f9565b5b602002015190508085600301600084815260200190815260200160002090816101e7919061056e565b508460020160008154809291906101fd9061066f565b919050555050808061020e9061066f565b9150506101a0565b506000808154809291906102299061066f565b91905055505050505050565b600080fd5b600073ffffffffffffffffffffffffffffffffffffffff82169050919050565b60006102658261023a565b9050919050565b6102758161025a565b811461028057600080fd5b50565b6000813590506102928161026c565b92915050565b6000602082840312156102ae576102ad610235565b5b60006102bc84828501610283565b91505092915050565b6000819050919050565b6102d8816102c5565b82525050565b60006020820190506102f360008301846102cf565b92915050565b7f4e487b7100000000000000000000000000000000000000000000000000000000600052603260045260246000fd5b600081519050919050565b7f4e487b7100000000000000000000000000000000000000000000000000000000600052604160045260246000fd5b7f4e487b7100000000000000000000000000000000000000000000000000000000600052602260045260246000fd5b600060028204905060018216806103a957607f821691505b6020821081036103bc576103bb610362565b5b50919050565b60008190508160005260206000209050919050565b60006020601f8301049050919050565b600082821b905092915050565b6000600883026104247fffffffffffffffffffffffffffffffffffffffffffffffffffffffffffffffff826103e7565b61042e86836103e7565b95508019841693508086168417925050509392505050565b6000819050919050565b600061046b610466610461846102c5565b610446565b6102c5565b9050919050565b6000819050919050565b61048583610450565b61049961049182610472565b8484546103f4565b825550505050565b600090565b6104ae6104a1565b6104b981848461047c565b505050565b5b818110156104dd576104d26000826104a6565b6001810190506104bf565b5050565b601f821115610522576104f3816103c2565b6104fc846103d7565b8101602085101561050b578190505b61051f610517856103d7565b8301826104be565b50505b505050565b600082821c905092915050565b600061054560001984600802610527565b1980831691505092915050565b600061055e8383610534565b9150826002028217905092915050565b61057782610328565b67ffffffffffffffff8111156105905761058f610333565b5b61059a8254610391565b6105a58282856104e1565b600060209050601f8311600181146105d857600084156105c6578287015190505b6105d08582610552565b865550610638565b601f1984166105e6866103c2565b60005b8281101561060e578489015182556001820191506020850194506020810190506105e9565b8683101561062b5784890151610627601f891682610534565b8355505b6001600288020188555050505b505050505050565b7f4e487b7100000000000000000000000000000000000000000000000000000000600052601160045260246000fd5b600061067a826102c5565b91507fffffffffffffffffffffffffffffffffffffffffffffffffffffffffffffffff82036106ac576106ab610640565b5b60018201905091905056fea26469706673582212200517bf0d8b29cabd1385cd4c096adb3b0df14f276119da2eb4d6546d293f464d64736f6c63430008110033","opcodes":"PUSH1 0x80 PUSH1 0x40 MSTORE CALLVALUE DUP1 ISZERO PUSH2 0x10 JUMPI PUSH1 0x0 DUP1 REVERT JUMPDEST POP PUSH2 0x6ED DUP1 PUSH2 0x20 PUSH1 0x0 CODECOPY PUSH1 0x0 RETURN INVALID PUSH1 0x80 PUSH1 0x40 MSTORE CALLVALUE DUP1 ISZERO PUSH2 0x10 JUMPI PUSH1 0x0 DUP1 REVERT JUMPDEST POP PUSH1 0x4 CALLDATASIZE LT PUSH2 0x2B JUMPI PUSH1 0x0 CALLDATALOAD PUSH1 0xE0 SHR DUP1 PUSH4 0xBB29998E EQ PUSH2 0x30 JUMPI JUMPDEST PUSH1 0x0 DUP1 REVERT JUMPDEST PUSH2 0x4A PUSH1 0x4 DUP1 CALLDATASIZE SUB DUP2 ADD SWAP1 PUSH2 0x45 SWAP2 SWAP1 PUSH2 0x298 JUMP JUMPDEST PUSH2 0x4C JUMP JUMPDEST STOP JUMPDEST PUSH2 0x54 PUSH2 0x5F JUMP JUMPDEST PUSH2 0x5C PUSH2 0xCB JUMP JUMPDEST POP JUMP JUMPDEST PUSH2 0x6B PUSH1 0x0 PUSH1 0x64 PUSH2 0xCD JUMP JUMPDEST PUSH2 0x77 PUSH1 0x64 PUSH1 0x78 PUSH2 0xCD JUMP JUMPDEST PUSH2 0x83 PUSH1 0x78 PUSH1 0x8C PUSH2 0xCD JUMP JUMPDEST PUSH2 0x90 PUSH1 0x8C PUSH2 0x3E8 PUSH2 0xCD JUMP JUMPDEST PUSH32 0x2335B7E19425C64F82A69A5BD40A2980CB0E2B909A099264A0F0B0AFA50B10A8 PUSH1 0x0 SLOAD PUSH1 0x40 MLOAD PUSH2 0xC1 SWAP2 SWAP1 PUSH2 0x2DE JUMP JUMPDEST PUSH1 0x40 MLOAD DUP1 SWAP2 SUB SWAP1 LOG1 JUMP JUMPDEST JUMP JUMPDEST PUSH1 0x0 PUSH1 0x1 PUSH1 0x0 DUP1 SLOAD DUP2 MSTORE PUSH1 0x20 ADD SWAP1 DUP2 MSTORE PUSH1 0x20 ADD PUSH1 0x0 KECCAK256 SWAP1 POP PUSH1 0x0 PUSH1 0x40 MLOAD DUP1 PUSH1 0x40 ADD PUSH1 0x40 MSTORE DUP1 DUP6 DUP2 MSTORE PUSH1 0x20 ADD DUP5 DUP2 MSTORE POP SWAP1 POP DUP1 DUP3 PUSH1 0x0 ADD PUSH1 0x0 DUP3 ADD MLOAD DUP2 PUSH1 0x0 ADD SSTORE PUSH1 0x20 DUP3 ADD MLOAD DUP2 PUSH1 0x1 ADD SSTORE SWAP1 POP POP PUSH1 0x0 PUSH1 0x40 MLOAD DUP1 PUSH1 0x40 ADD PUSH1 0x40 MSTORE DUP1 PUSH1 0x40 MLOAD DUP1 PUSH1 0x40 ADD PUSH1 0x40 MSTORE DUP1 PUSH1 0x3 DUP2 MSTORE PUSH1 0x20 ADD PUSH32 0x4554480000000000000000000000000000000000000000000000000000000000 DUP2 MSTORE POP DUP2 MSTORE PUSH1 0x20 ADD PUSH1 0x40 MLOAD DUP1 PUSH1 0x40 ADD PUSH1 0x40 MSTORE DUP1 PUSH1 0x4 DUP2 MSTORE PUSH1 0x20 ADD PUSH32 0x5553444300000000000000000000000000000000000000000000000000000000 DUP2 MSTORE POP DUP2 MSTORE POP SWAP1 POP PUSH1 0x0 JUMPDEST PUSH1 0x2 DUP2 LT ISZERO PUSH2 0x216 JUMPI PUSH1 0x0 DUP3 DUP3 PUSH1 0x2 DUP2 LT PUSH2 0x1BE JUMPI PUSH2 0x1BD PUSH2 0x2F9 JUMP JUMPDEST JUMPDEST PUSH1 0x20 MUL ADD MLOAD SWAP1 POP DUP1 DUP6 PUSH1 0x3 ADD PUSH1 0x0 DUP5 DUP2 MSTORE PUSH1 0x20 ADD SWAP1 DUP2 MSTORE PUSH1 0x20 ADD PUSH1 0x0 KECCAK256 SWAP1 DUP2 PUSH2 0x1E7 SWAP2 SWAP1 PUSH2 0x56E JUMP JUMPDEST POP DUP5 PUSH1 0x2 ADD PUSH1 0x0 DUP2 SLOAD DUP1 SWAP3 SWAP2 SWAP1 PUSH2 0x1FD SWAP1 PUSH2 0x66F JUMP JUMPDEST SWAP2 SWAP1 POP SSTORE POP POP DUP1 DUP1 PUSH2 0x20E SWAP1 PUSH2 0x66F JUMP JUMPDEST SWAP2 POP POP PUSH2 0x1A0 JUMP JUMPDEST POP PUSH1 0x0 DUP1 DUP2 SLOAD DUP1 SWAP3 SWAP2 SWAP1 PUSH2 0x229 SWAP1 PUSH2 0x66F JUMP JUMPDEST SWAP2 SWAP1 POP SSTORE POP POP POP POP POP POP JUMP JUMPDEST PUSH1 0x0 DUP1 REVERT JUMPDEST PUSH1 0x0 PUSH20 0xFFFFFFFFFFFFFFFFFFFFFFFFFFFFFFFFFFFFFFFF DUP3 AND SWAP1 POP SWAP2 SWAP1 POP JUMP JUMPDEST PUSH1 0x0 PUSH2 0x265 DUP3 PUSH2 0x23A JUMP JUMPDEST SWAP1 POP SWAP2 SWAP1 POP JUMP JUMPDEST PUSH2 0x275 DUP2 PUSH2 0x25A JUMP JUMPDEST DUP2 EQ PUSH2 0x280 JUMPI PUSH1 0x0 DUP1 REVERT JUMPDEST POP JUMP JUMPDEST PUSH1 0x0 DUP2 CALLDATALOAD SWAP1 POP PUSH2 0x292 DUP2 PUSH2 0x26C JUMP JUMPDEST SWAP3 SWAP2 POP POP JUMP JUMPDEST PUSH1 0x0 PUSH1 0x20 DUP3 DUP5 SUB SLT ISZERO PUSH2 0x2AE JUMPI PUSH2 0x2AD PUSH2 0x235 JUMP JUMPDEST JUMPDEST PUSH1 0x0 PUSH2 0x2BC DUP5 DUP3 DUP6 ADD PUSH2 0x283 JUMP JUMPDEST SWAP2 POP POP SWAP3 SWAP2 POP POP JUMP JUMPDEST PUSH1 0x0 DUP2 SWAP1 POP SWAP2 SWAP1 POP JUMP JUMPDEST PUSH2 0x2D8 DUP2 PUSH2 0x2C5 JUMP JUMPDEST DUP3 MSTORE POP POP JUMP JUMPDEST PUSH1 0x0 PUSH1 0x20 DUP3 ADD SWAP1 POP PUSH2 0x2F3 PUSH1 0x0 DUP4 ADD DUP5 PUSH2 0x2CF JUMP JUMPDEST SWAP3 SWAP2 POP POP JUMP JUMPDEST PUSH32 0x4E487B7100000000000000000000000000000000000000000000000000000000 PUSH1 0x0 MSTORE PUSH1 0x32 PUSH1 0x4 MSTORE PUSH1 0x24 PUSH1 0x0 REVERT JUMPDEST PUSH1 0x0 DUP2 MLOAD SWAP1 POP SWAP2 SWAP1 POP JUMP JUMPDEST PUSH32 0x4E487B7100000000000000000000000000000000000000000000000000000000 PUSH1 0x0 MSTORE PUSH1 0x41 PUSH1 0x4 MSTORE PUSH1 0x24 PUSH1 0x0 REVERT JUMPDEST PUSH32 0x4E487B7100000000000000000000000000000000000000000000000000000000 PUSH1 0x0 MSTORE PUSH1 0x22 PUSH1 0x4 MSTORE PUSH1 0x24 PUSH1 0x0 REVERT JUMPDEST PUSH1 0x0 PUSH1 0x2 DUP3 DIV SWAP1 POP PUSH1 0x1 DUP3 AND DUP1 PUSH2 0x3A9 JUMPI PUSH1 0x7F DUP3 AND SWAP2 POP JUMPDEST PUSH1 0x20 DUP3 LT DUP2 SUB PUSH2 0x3BC JUMPI PUSH2 0x3BB PUSH2 0x362 JUMP JUMPDEST JUMPDEST POP SWAP2 SWAP1 POP JUMP JUMPDEST PUSH1 0x0 DUP2 SWAP1 POP DUP2 PUSH1 0x0 MSTORE PUSH1 0x20 PUSH1 0x0 KECCAK256 SWAP1 POP SWAP2 SWAP1 POP JUMP JUMPDEST PUSH1 0x0 PUSH1 0x20 PUSH1 0x1F DUP4 ADD DIV SWAP1 POP SWAP2 SWAP1 POP JUMP JUMPDEST PUSH1 0x0 DUP3 DUP3 SHL SWAP1 POP SWAP3 SWAP2 POP POP JUMP JUMPDEST PUSH1 0x0 PUSH1 0x8 DUP4 MUL PUSH2 0x424 PUSH32 0xFFFFFFFFFFFFFFFFFFFFFFFFFFFFFFFFFFFFFFFFFFFFFFFFFFFFFFFFFFFFFFFF DUP3 PUSH2 0x3E7 JUMP JUMPDEST PUSH2 0x42E DUP7 DUP4 PUSH2 0x3E7 JUMP JUMPDEST SWAP6 POP DUP1 NOT DUP5 AND SWAP4 POP DUP1 DUP7 AND DUP5 OR SWAP3 POP POP POP SWAP4 SWAP3 POP POP POP JUMP JUMPDEST PUSH1 0x0 DUP2 SWAP1 POP SWAP2 SWAP1 POP JUMP JUMPDEST PUSH1 0x0 PUSH2 0x46B PUSH2 0x466 PUSH2 0x461 DUP5 PUSH2 0x2C5 JUMP JUMPDEST PUSH2 0x446 JUMP JUMPDEST PUSH2 0x2C5 JUMP JUMPDEST SWAP1 POP SWAP2 SWAP1 POP JUMP JUMPDEST PUSH1 0x0 DUP2 SWAP1 POP SWAP2 SWAP1 POP JUMP JUMPDEST PUSH2 0x485 DUP4 PUSH2 0x450 JUMP JUMPDEST PUSH2 0x499 PUSH2 0x491 DUP3 PUSH2 0x472 JUMP JUMPDEST DUP5 DUP5 SLOAD PUSH2 0x3F4 JUMP JUMPDEST DUP3 SSTORE POP POP POP POP JUMP JUMPDEST PUSH1 0x0 SWAP1 JUMP JUMPDEST PUSH2 0x4AE PUSH2 0x4A1 JUMP JUMPDEST PUSH2 0x4B9 DUP2 DUP5 DUP5 PUSH2 0x47C JUMP JUMPDEST POP POP POP JUMP JUMPDEST JUMPDEST DUP2 DUP2 LT ISZERO PUSH2 0x4DD JUMPI PUSH2 0x4D2 PUSH1 0x0 DUP3 PUSH2 0x4A6 JUMP JUMPDEST PUSH1 0x1 DUP2 ADD SWAP1 POP PUSH2 0x4BF JUMP JUMPDEST POP POP JUMP JUMPDEST PUSH1 0x1F DUP3 GT ISZERO PUSH2 0x522 JUMPI PUSH2 0x4F3 DUP2 PUSH2 0x3C2 JUMP JUMPDEST PUSH2 0x4FC DUP5 PUSH2 0x3D7 JUMP JUMPDEST DUP2 ADD PUSH1 0x20 DUP6 LT ISZERO PUSH2 0x50B JUMPI DUP2 SWAP1 POP JUMPDEST PUSH2 0x51F PUSH2 0x517 DUP6 PUSH2 0x3D7 JUMP JUMPDEST DUP4 ADD DUP3 PUSH2 0x4BE JUMP JUMPDEST POP POP JUMPDEST POP POP POP JUMP JUMPDEST PUSH1 0x0 DUP3 DUP3 SHR SWAP1 POP SWAP3 SWAP2 POP POP JUMP JUMPDEST PUSH1 0x0 PUSH2 0x545 PUSH1 0x0 NOT DUP5 PUSH1 0x8 MUL PUSH2 0x527 JUMP JUMPDEST NOT DUP1 DUP4 AND SWAP2 POP POP SWAP3 SWAP2 POP POP JUMP JUMPDEST PUSH1 0x0 PUSH2 0x55E DUP4 DUP4 PUSH2 0x534 JUMP JUMPDEST SWAP2 POP DUP3 PUSH1 0x2 MUL DUP3 OR SWAP1 POP SWAP3 SWAP2 POP POP JUMP JUMPDEST PUSH2 0x577 DUP3 PUSH2 0x328 JUMP JUMPDEST PUSH8 0xFFFFFFFFFFFFFFFF DUP2 GT ISZERO PUSH2 0x590 JUMPI PUSH2 0x58F PUSH2 0x333 JUMP JUMPDEST JUMPDEST PUSH2 0x59A DUP3 SLOAD PUSH2 0x391 JUMP JUMPDEST PUSH2 0x5A5 DUP3 DUP3 DUP6 PUSH2 0x4E1 JUMP JUMPDEST PUSH1 0x0 PUSH1 0x20 SWAP1 POP PUSH1 0x1F DUP4 GT PUSH1 0x1 DUP2 EQ PUSH2 0x5D8 JUMPI PUSH1 0x0 DUP5 ISZERO PUSH2 0x5C6 JUMPI DUP3 DUP8 ADD MLOAD SWAP1 POP JUMPDEST PUSH2 0x5D0 DUP6 DUP3 PUSH2 0x552 JUMP JUMPDEST DUP7 SSTORE POP PUSH2 0x638 JUMP JUMPDEST PUSH1 0x1F NOT DUP5 AND PUSH2 0x5E6 DUP7 PUSH2 0x3C2 JUMP JUMPDEST PUSH1 0x0 JUMPDEST DUP3 DUP2 LT ISZERO PUSH2 0x60E JUMPI DUP5 DUP10 ADD MLOAD DUP3 SSTORE PUSH1 0x1 DUP3 ADD SWAP2 POP PUSH1 0x20 DUP6 ADD SWAP5 POP PUSH1 0x20 DUP2 ADD SWAP1 POP PUSH2 0x5E9 JUMP JUMPDEST DUP7 DUP4 LT ISZERO PUSH2 0x62B JUMPI DUP5 DUP10 ADD MLOAD PUSH2 0x627 PUSH1 0x1F DUP10 AND DUP3 PUSH2 0x534 JUMP JUMPDEST DUP4 SSTORE POP JUMPDEST PUSH1 0x1 PUSH1 0x2 DUP9 MUL ADD DUP9 SSTORE POP POP POP JUMPDEST POP POP POP POP POP POP JUMP JUMPDEST PUSH32 0x4E487B7100000000000000000000000000000000000000000000000000000000 PUSH1 0x0 MSTORE PUSH1 0x11 PUSH1 0x4 MSTORE PUSH1 0x24 PUSH1 0x0 REVERT JUMPDEST PUSH1 0x0 PUSH2 0x67A DUP3 PUSH2 0x2C5 JUMP JUMPDEST SWAP2 POP PUSH32 0xFFFFFFFFFFFFFFFFFFFFFFFFFFFFFFFFFFFFFFFFFFFFFFFFFFFFFFFFFFFFFFFF DUP3 SUB PUSH2 0x6AC JUMPI PUSH2 0x6AB PUSH2 0x640 JUMP JUMPDEST JUMPDEST PUSH1 0x1 DUP3 ADD SWAP1 POP SWAP2 SWAP1 POP JUMP INVALID LOG2 PUSH5 0x6970667358 0x22 SLT KECCAK256 SDIV OR 0xBF 0xD DUP12 0x29 0xCA 0xBD SGT DUP6 0xCD 0x4C MULMOD PUSH11 0xDB3B0DF14F276119DA2EB4 0xD6 SLOAD PUSH14 0x293F464D64736F6C634300081100 CALLER "},"methodIdentifiers":{"test(address)":"bb29998e"}}}}}