{
  "_format": "hh-sol-artifact-1",
  "contractName": "Wallet",
  "sourceName": "contracts/Wallet.sol",
  "abi": [
    {
      "anonymous": false,
      "inputs": [
        {
          "indexed": false,
          "internalType": "uint256",
          "name": "_numLayersToMakeTransfer",
          "type": "uint256"
        }
      ],
      "name": "TestLogNumLayersToMakeTransfer",
      "type": "event"
    },
    {
      "anonymous": false,
      "inputs": [
        {
          "indexed": false,
          "internalType": "uint256",
          "name": "_amountMin",
          "type": "uint256"
        },
        {
          "indexed": false,
          "internalType": "uint256",
          "name": "_amountMax",
          "type": "uint256"
        }
      ],
      "name": "TestLogTransferLayer",
      "type": "event"
    },
    {
      "inputs": [
        {
          "internalType": "address",
          "name": "_receiver",
          "type": "address"
        }
      ],
      "name": "test",
      "outputs": [],
      "stateMutability": "nonpayable",
      "type": "function"
    }
  ],
  "bytecode": "0x608060405234801561001057600080fd5b506106ed806100206000396000f3fe608060405234801561001057600080fd5b506004361061002b5760003560e01c8063bb29998e14610030575b600080fd5b61004a60048036038101906100459190610298565b61004c565b005b61005461005f565b61005c6100cb565b50565b61006b600060646100cd565b610077606460786100cd565b6100836078608c6100cd565b610090608c6103e86100cd565b7f2335b7e19425c64f82a69a5bd40a2980cb0e2b909a099264a0f0b0afa50b10a86000546040516100c191906102de565b60405180910390a1565b565b6000600160008054815260200190815260200160002090506000604051806040016040528085815260200184815250905080826000016000820151816000015560208201518160010155905050600060405180604001604052806040518060400160405280600381526020017f455448000000000000000000000000000000000000000000000000000000000081525081526020016040518060400160405280600481526020017f5553444300000000000000000000000000000000000000000000000000000000815250815250905060005b60028110156102165760008282600281106101be576101bd6102f9565b5b602002015190508085600301600084815260200190815260200160002090816101e7919061056e565b508460020160008154809291906101fd9061066f565b919050555050808061020e9061066f565b9150506101a0565b506000808154809291906102299061066f565b91905055505050505050565b600080fd5b600073ffffffffffffffffffffffffffffffffffffffff82169050919050565b60006102658261023a565b9050919050565b6102758161025a565b811461028057600080fd5b50565b6000813590506102928161026c565b92915050565b6000602082840312156102ae576102ad610235565b5b60006102bc84828501610283565b91505092915050565b6000819050919050565b6102d8816102c5565b82525050565b60006020820190506102f360008301846102cf565b92915050565b7f4e487b7100000000000000000000000000000000000000000000000000000000600052603260045260246000fd5b600081519050919050565b7f4e487b7100000000000000000000000000000000000000000000000000000000600052604160045260246000fd5b7f4e487b7100000000000000000000000000000000000000000000000000000000600052602260045260246000fd5b600060028204905060018216806103a957607f821691505b6020821081036103bc576103bb610362565b5b50919050565b60008190508160005260206000209050919050565b60006020601f8301049050919050565b600082821b905092915050565b6000600883026104247fffffffffffffffffffffffffffffffffffffffffffffffffffffffffffffffff826103e7565b61042e86836103e7565b95508019841693508086168417925050509392505050565b6000819050919050565b600061046b610466610461846102c5565b610446565b6102c5565b9050919050565b6000819050919050565b61048583610450565b61049961049182610472565b8484546103f4565b825550505050565b600090565b6104ae6104a1565b6104b981848461047c565b505050565b5b818110156104dd576104d26000826104a6565b6001810190506104bf565b5050565b601f821115610522576104f3816103c2565b6104fc846103d7565b8101602085101561050b578190505b61051f610517856103d7565b8301826104be565b50505b505050565b600082821c905092915050565b600061054560001984600802610527565b1980831691505092915050565b600061055e8383610534565b9150826002028217905092915050565b61057782610328565b67ffffffffffffffff8111156105905761058f610333565b5b61059a8254610391565b6105a58282856104e1565b600060209050601f8311600181146105d857600084156105c6578287015190505b6105d08582610552565b865550610638565b601f1984166105e6866103c2565b60005b8281101561060e578489015182556001820191506020850194506020810190506105e9565b8683101561062b5784890151610627601f891682610534565b8355505b6001600288020188555050505b505050505050565b7f4e487b7100000000000000000000000000000000000000000000000000000000600052601160045260246000fd5b600061067a826102c5565b91507fffffffffffffffffffffffffffffffffffffffffffffffffffffffffffffffff82036106ac576106ab610640565b5b60018201905091905056fea26469706673582212200517bf0d8b29cabd1385cd4c096adb3b0df14f276119da2eb4d6546d293f464d64736f6c63430008110033",
  "linkReferences": {},
  "deployedLinkReferences": {}
}