{
  "_format": "hh-sol-artifact-1",
  "contractName": "Wallet",
  "sourceName": "contracts/Wallet.sol",
  "abi": [
    {
      "anonymous": false,
      "inputs": [
        {
          "indexed": false,
          "internalType": "uint256",
          "name": "_numLayersToMakeTransfer",
          "type": "uint256"
        }
      ],
      "name": "TestLogNumLayersToMakeTransfer",
      "type": "event"
    },
    {
      "anonymous": false,
      "inputs": [
        {
          "indexed": false,
          "internalType": "uint256",
          "name": "_amountMin",
          "type": "uint256"
        },
        {
          "indexed": false,
          "internalType": "uint256",
          "name": "_amountMax",
          "type": "uint256"
        }
      ],
      "name": "TestLogTransferLayer",
      "type": "event"
    },
    {
      "inputs": [
        {
          "internalType": "address",
          "name": "_receiver",
          "type": "address"
        }
      ],
      "name": "test",
      "outputs": [],
      "stateMutability": "nonpayable",
      "type": "function"
    }
  ],
  "bytecode": "0x608060405234801561001057600080fd5b506106c8806100206000396000f3fe608060405234801561001057600080fd5b506004361061002b5760003560e01c8063bb29998e14610030575b600080fd5b61004a60048036038101906100459190610273565b61004c565b005b61005461005f565b61005c6100a6565b50565b61006b600060646100a8565b7f2335b7e19425c64f82a69a5bd40a2980cb0e2b909a099264a0f0b0afa50b10a860005460405161009c91906102b9565b60405180910390a1565b565b6000600160008054815260200190815260200160002090506000604051806040016040528085815260200184815250905080826000016000820151816000015560208201518160010155905050600060405180604001604052806040518060400160405280600381526020017f455448000000000000000000000000000000000000000000000000000000000081525081526020016040518060400160405280600481526020017f5553444300000000000000000000000000000000000000000000000000000000815250815250905060005b60028110156101f1576000828260028110610199576101986102d4565b5b602002015190508085600301600084815260200190815260200160002090816101c29190610549565b508460020160008154809291906101d89061064a565b91905055505080806101e99061064a565b91505061017b565b506000808154809291906102049061064a565b91905055505050505050565b600080fd5b600073ffffffffffffffffffffffffffffffffffffffff82169050919050565b600061024082610215565b9050919050565b61025081610235565b811461025b57600080fd5b50565b60008135905061026d81610247565b92915050565b60006020828403121561028957610288610210565b5b60006102978482850161025e565b91505092915050565b6000819050919050565b6102b3816102a0565b82525050565b60006020820190506102ce60008301846102aa565b92915050565b7f4e487b7100000000000000000000000000000000000000000000000000000000600052603260045260246000fd5b600081519050919050565b7f4e487b7100000000000000000000000000000000000000000000000000000000600052604160045260246000fd5b7f4e487b7100000000000000000000000000000000000000000000000000000000600052602260045260246000fd5b6000600282049050600182168061038457607f821691505b6020821081036103975761039661033d565b5b50919050565b60008190508160005260206000209050919050565b60006020601f8301049050919050565b600082821b905092915050565b6000600883026103ff7fffffffffffffffffffffffffffffffffffffffffffffffffffffffffffffffff826103c2565b61040986836103c2565b95508019841693508086168417925050509392505050565b6000819050919050565b600061044661044161043c846102a0565b610421565b6102a0565b9050919050565b6000819050919050565b6104608361042b565b61047461046c8261044d565b8484546103cf565b825550505050565b600090565b61048961047c565b610494818484610457565b505050565b5b818110156104b8576104ad600082610481565b60018101905061049a565b5050565b601f8211156104fd576104ce8161039d565b6104d7846103b2565b810160208510156104e6578190505b6104fa6104f2856103b2565b830182610499565b50505b505050565b600082821c905092915050565b600061052060001984600802610502565b1980831691505092915050565b6000610539838361050f565b9150826002028217905092915050565b61055282610303565b67ffffffffffffffff81111561056b5761056a61030e565b5b610575825461036c565b6105808282856104bc565b600060209050601f8311600181146105b357600084156105a1578287015190505b6105ab858261052d565b865550610613565b601f1984166105c18661039d565b60005b828110156105e9578489015182556001820191506020850194506020810190506105c4565b868310156106065784890151610602601f89168261050f565b8355505b6001600288020188555050505b505050505050565b7f4e487b7100000000000000000000000000000000000000000000000000000000600052601160045260246000fd5b6000610655826102a0565b91507fffffffffffffffffffffffffffffffffffffffffffffffffffffffffffffffff82036106875761068661061b565b5b60018201905091905056fea2646970667358221220c5fdf2a63510f874384407dff98b1f8097127a0a8455d64ff212d5238a1e039464736f6c63430008110033",
  "linkReferences": {},
  "deployedLinkReferences": {}
}